:020000040800F2
:10000000781000209D010008A5010008A701000844
:10001000A9010008AB010008AD01000800000000C4
:10002000000000000000000000000000AF01000818
:10003000B101000800000000B3010008D51200085B
:10004000B7010008B7010008B7010008B7010008B0
:10005000B7010008B7010008B7010008B7010008A0
:10006000B7010008B7010008B7010008B701000890
:10007000B7010008B7010008B7010008B701000880
:10008000B7010008B7010008B7010008B701000870
:10009000B7010008B7010008B7010008B701000860
:1000A00071140008E9150008B7010008B70100083D
:1000B000B7010008B7010008B7010008B701000840
:1000C000B7010008B7010008B7010008B701000830
:1000D000B7010008191C0008B7010008911C0008AE
:1000E000B7010008B7010008B7010008B701000810
:1000F000B7010008B7010008B7010008B701000800
:10010000B7010008B7010008B7010008B7010008EF
:10011000751B0008ED1B000805160008B701000854
:10012000B7010008B7010008B7010008B7010008CF
:10013000B7010008B7010008B7010008B7010008BF
:10014000B7010008B7010008B7010008B7010008AF
:10015000B7010008B7010008B7010008091D000831
:10016000B7010008B7010008B7010008B70100088F
:10017000B7010008B7010008B7010008B70100087F
:10018000B7010008B7010008DFF80CD000F07AFAD8
:10019000004800472D2A00087810002006488047B4
:1001A00006480047FEE7FEE7FEE7FEE7FEE7FEE75C
:1001B000FEE7FEE7FEE7FEE7E5120008890100081A
:1001C00040EA01039B0703D009E008C9121F08C0D9
:1001D000042AFAD203E011F8013B00F8013B521E59
:1001E000F9D27047034611F8012B00F8012B002AC1
:1001F000F9D11846704730B505460020034600E0A7
:100200005B1C934205D2EC5CC85C201A01D1002C27
:10021000F6D130BD70B50F4D00B92868002412E04A
:100220000A4602E09E4203D0521C1378002BF9D1FB
:10023000DAB2224305D02BB124B1002100F8011B12
:1002400004E00446401C0678002EE9D128602046D0
:1002500070BD0000300100202DE9FE4F81EA03044B
:1002600004F0004421F0004100944FF0000B23F013
:10027000004350EA01045ED052EA03045BD0C3F3AA
:100280000A54C1F30A552C44A4F2F3340194A0FBA0
:100290000254C1F3130141F48011C3F3130343F477
:1002A000801301FB024400FB034E840A970A44EAD0
:1002B000815447EA8357A4FB076802958D0A05FB22
:1002C00007854FEA932C04FB0C542705029D4FEA47
:1002D000065847EA1637B5EB08056EEB070C870E94
:1002E000920E47EA811742EA8312A7FB0201B6EB9E
:1002F0000B0164EB00042B0D43EA0C335E1844EB56
:100300001C50DA465146E7FB0201C5F313044FEADD
:100310000B3343EA14534FEA0432019C43EA0603C9
:10032000A4F10C040294009CCDE900B400F0ECF8B8
:1003300003B0BDE8F08F00200146F9E701F000436B
:1003400030B421F0004150EA010206D00A0DA2F5B6
:100350006072C1F31301002A02DC30BC0020704738
:10036000440F44EAC104C100E01830BC00EBC250A5
:1003700000F084B830B50B4601460020202201244D
:1003800009E021FA02F59D4205D303FA02F5491B63
:1003900004FA02F52844151EA2F10102F1DC30BD79
:1003A000202A04DB203A00FA02F100207047914035
:1003B000C2F1200320FA03F3194390407047202A2A
:1003C00004DB203A21FA02F00021704721FA02F3FF
:1003D000D040C2F120029140084319467047000006
:1003E0000FB4002300B589B00CA900910B996FF0F0
:1003F0000042CB601E4B06931E4B07930423CDE9AE
:1004000001321D4A089202466B46002000F0E6F9D0
:1004100009B05DF814FB70B586B006464FF0FF30AA
:100420000091CDE90101002015460C4604903246AA
:10043000694604A8FFF7D4FF02460498211825B1A5
:1004400008B1084600E020462860049800280DD036
:10045000002A02DD0098884208D0081B0094CDE9EC
:1004600001043246694604A8FFF7BAFF06B070BD22
:10047000150A0008330A0008A90600080029A8BFC9
:100480007047401C490008BF20F00100704710B4BD
:10049000B0FA80FC00FA0CF050EA010404BF10BC72
:1004A000704749B1CCF1200421FA04F411FA0CF19F
:1004B00018BF012121430843A3EB0C01CB1D4FEAD8
:1004C00000614FEA102042BF002010BC704700EBD3
:1004D000C35010440029A4BF10BC7047401C490001
:1004E00008BF20F0010010BC704710B5141E73F156
:1004F000000408DA401C41F1000192185B411A43E4
:1005000001D120F0010010BD2DE9F04D92469B462F
:1005100011B1B1FA81F202E0B0FA80F220329046D5
:10052000FFF73EFF04460F4640EA0A0041EA0B018E
:1005300053465A46084313D0114653EA010019D0D6
:10054000C8F140025046FFF73AFF05460E465046B6
:1005500059464246FFF724FF084305D0012004E036
:1005600020463946BDE8F08D0020054346EAE07696
:100570002C4337430A986305E40AA0EB08000022E5
:10058000FD0A44EA47540A3002D500200146E9E753
:10059000010510196941DDE9084500196941BDE807
:1005A000F04DA2E72DE9F04D81EA030404F0004B81
:1005B00021F0004514464FF0000A23F0004150EAB4
:1005C000050220D054EA01021DD0C5F30A570246A5
:1005D000C5F31303C1F31300C1F30A5640F48015A9
:1005E00043F48013A7EB0608101BD64608F2FD382B
:1005F00073EB050002D308F1010801E092185B419A
:10060000B8F1000F03DA00200146BDE8F08D0020AC
:100610004FF48011064684460EE0171B73EB050766
:1006200005D3121B63EB050306434CEA010C490892
:100630004FEA300092185B4150EA0107EDD152EACF
:10064000030012D082EA040083EA0501084305D0C2
:10065000101BAB4106D20122002306E000224FF01E
:10066000004302E06FF0010253101AEB06004CEB5E
:10067000085110EB0A0041EB0B01BDE8F04DFFF70C
:1006800034BF0000064C074D06E0E06840F001036F
:1006900094E8070098471034AC42F6D3FFF778FD92
:1006A0009C370008BC370008C0B24FF4F05100F08E
:1006B000D1B900002DE9FF4F087883B09946FF2893
:1006C00005D0491C2D2804D00024002008E000207B
:1006D0000BE00124F9E700EB800003EB4000491C2C
:1006E0000B78FF2BF7D104B140420023029314781A
:1006F00019461D462D2C01D02B2C04D1521C2D2C1B
:1007000013D000240294AA461478FF2C0FD00A2597
:10071000A3FB057801FB05814FF0000C03FB0C11D6
:10072000521CE3194AEB0101EEE70124EAE7814498
:1007300053EA010002D019F5C87F06DA03980021B8
:10074000C0E9001107B0BDE8F08F0025AE4E2F467E
:10075000DFF8B882184600F091F9CDE90001B9F14F
:10076000000002DAC9F1000400E004460023A74AB1
:100770001AEB030B42EB045A12E0E00707D02A46BB
:10078000334638464146FFF767FD074688462A4606
:10079000334610461946FFF75FFD05460E466410C6
:1007A000002CEAD1DDE90001B9F1000F5A465346A9
:1007B00006DAFFF7F7FE3A464346FFF7F3FE05E099
:1007C000FFF74AFD3A464346FFF746FD029A0AB153
:1007D00081F00041039AC2E90001B3E72DE9FF4F20
:1007E0001F468DB0D7E901464FF0FF382E20454611
:1007F0004FF000090B90B9696D1C0E988847396A53
:10080000824688470028F6D1BAF1FF3F0AD024F487
:10081000D064002E11DDBAF12B0F08D0BAF12D0FE4
:100820000BD102E0404611B08DE744F48064B96911
:100830006D1C0E9888478246761E6946600501D574
:100840002D2000E02B208DF8000001F1010B0DF1AF
:10085000200809E0B9696D1C0E98884782460F98F8
:1008600044F40074761E0560002E02DDBAF1300FEC
:10087000F0D00B998A453ED144F0800406E00F99F0
:10088000681CA9F1010944F400740860B9696D1C81
:10089000761E0E98884782463028F0D02BE00B99C0
:1008A0008A4505D1200603D444F08004761E18E062
:1008B000504601F019FD08B30DF11301761E44F402
:1008C00000748B4508D2AAF130000BF8010B20060A
:1008D00007D5A9F1010003E0200602D409F10100C7
:1008E0008146A00502D50F99681C0860B9696D1C86
:1008F0000E9888478246002ED1DC53E0002E51DD51
:10090000BAF1650F02D0BAF1450F4BD1A00549D518
:10091000B9696D1C24F44074761E0E98884782468F
:10092000002E0CDD2B2804D0BAF12D0F07D144F492
:100930008074B9696D1C0E9888478246761EE00562
:1009400001D52D2100E02B2108F8011BCDF82C80CA
:1009500021E00DF12901761E44F4007488450CD283
:10096000AAF1300010F0FF0088F8000002D10B99C6
:10097000884509D908F1010806E0E00501D52448B9
:1009800001E042F20F708146B9696D1C0E988847EC
:1009900082460F980560002E04DD504601F0A4FC4D
:1009A0000028D6D1F9690E988847FF208BF80000FF
:1009B00088F800000020069007904B466A4608A978
:1009C00006A8FFF777FEA00502D46FF001002AE722
:1009D00014F0240F0AD0E00714D1DDE906123868BC
:1009E000031D3B600068C0E900120BE0DDE9060171
:1009F000FFF7A4FC0146E00704D13868021D3A6005
:100A00000068016028460EE7000014400000F03F37
:100A1000F1D8FFFF426842B1016811F8013B23B1F0
:100A2000521EC0E90012184670470121C160881E9D
:100A3000704742685AB1C368016843B983688B4202
:100A400005D0491E521CC0E90012002070474FF02B
:100A5000FF3070477F2801D9002208E0064A02EBE8
:100A60005002C007127800D1120902F00F020120D3
:100A700090400840704700005C3700080EB540F217
:100A8000334202920022CDE900221346FFF73CFDDB
:100A900003B000BD70B58C1810F8015B15F00703AA
:100AA00001D110F8013B2A1106D110F8012B03E007
:100AB00010F8016B01F8016B5B1EF9D12B0705D40F
:100AC0000023521E0DD401F8013BFAE710F8013B58
:100AD000CB1A921C03E013F8015B01F8015B521E74
:100AE000F9D5A142D8D3002070BD00002DE9F84F00
:100AF00007460C4690464FF00009CA4600250026DE
:100B0000A346A01D00900425A7F1500010283AD25A
:100B1000DFE800F01608190F1E2326292C2F323982
:100B2000393939354FF0340903254FF0400A012691
:100B30002BE04FF03D0903254FF02E0A012624E05B
:100B40004FF0300921E04FF037094FF003081CE067
:100B50004FF03A094FF0030817E04FF0410914E055
:100B60004FF0450911E04FF049090EE04FF04D09F3
:100B70000BE04FF0510908E04FF0550905E014482B
:100B8000D0F8009001E0BDE8F88F00BFB8F1030F86
:100B900001D1032500265DB16A000E4901EB490031
:100BA0005946FFF70DFB294648460B4A1268904705
:100BB0005EB17200074901EB4A000099FFF700FBA4
:100BC00031465046044A1268904700BFDBE70000F8
:100BD0002C010020580B002018010020F0B50A4617
:100BE00000210023002400BF3DE0012505FA01F3A8
:100BF000156805EA03049C4234D105684F000326BA
:100C0000BE40B543056015794E00B54006683543D2
:100C100005601579012D02D01579022D16D1856850
:100C20004F000326BE40B543856055794E00B54060
:100C3000866835438560456801268E40B54345602A
:100C4000456896798E40B6B235434560C5684F0019
:100C50000326BE40B543C560D5794E00B540C66891
:100C60003543C560491C1029BFD3F0BDF0B5002342
:100C700000244D07ED0E02FA05F3CE1000F1200519
:100C800055F826504E07F70E0F26BE40B543CF103D
:100C900000F1200646F82750CE1000F1200555F847
:100CA000265045EA0304CE1000F1200545F8264001
:100CB000F0BD4183704701837047000070B500218B
:100CC00000230F22C4781CB3174C246804F4E0649A
:100CD000C4F5E064C4F30721C1F10404E3B20A419E
:100CE00044789C40E1B28478144021430C07210EE3
:100CF0000E4C05786155047804F01F050124AC40C2
:100D000005786D11AD0005F1E025C5F8004109E059
:100D1000047804F01F050124AC40054D06787611D7
:100D200045F8264070BD00000CED00E000E400E056
:100D300080E100E002490143024A1160704700006F
:100D40000000FA050CED00E0B0EE401A10B99FED7E
:100D5000790A704790ED100A80ED110A90ED0F0AA4
:100D600080ED100AC0ED060A80ED071A30EEC10AC8
:100D700080ED0F0A0178002975D190ED010AD0EDC0
:100D80000F1A20EE210A80ED090A90ED0A0AD0ED33
:100D9000021A90ED0F2A01EE820A80ED0A0A90ED08
:100DA0000D0A80ED0E0A90ED0C0A80ED0D0A90ED13
:100DB0000F0AD0ED101A30EE610A80ED0C0A90EDAA
:100DC000030AD0ED0C1A20EE210A80ED0B0A90EDFB
:100DD0000A0AD0ED051AB4EEE10AF1EE10FA04DDCC
:100DE00090ED050A80ED0A0A10E090ED0A0AD0EDB8
:100DF000051AF1EE611AB4EEE10AF1EE10FA05D22D
:100E000090ED050AB1EE400A80ED0A0A90ED090A5C
:100E1000D0ED0A1A30EE210AD0ED0B1A30EE210A7D
:100E200080ED080A90ED080AD0ED041AB4EEE10A4C
:100E3000F1EE10FA04DD90ED040A80ED080A76E088
:100E400090ED080AD0ED041AF1EE611AB4EEE10A51
:100E5000F1EE10FA6BD290ED040AB1EE400A80ED8B
:100E6000080A64E0FFE70178012960D190ED0F0ADC
:100E7000D0ED101A30EE610AD0ED011A20EE210AF1
:100E800080ED090A90ED020AD0ED0F1A20EE210A3A
:100E900080ED0A0A90ED0D0A80ED0E0A90ED0C0A25
:100EA00080ED0D0A90ED0F0AD0ED101AB0EE002A79
:100EB00002EE610AD0ED111A30EE210A80ED0C0A23
:100EC00090ED030AD0ED0C1A20EE210A80ED0B0AFA
:100ED00090ED090AD0ED0A1A30EE210AD0ED0B1A76
:100EE00030EE210AD0ED081A30EE210A80ED080A12
:100EF00090ED080AD0ED041AB4EEE10AF1EE10FA12
:100F000004DD90ED040A80ED080A10E090ED080A77
:100F1000D0ED041AF1EE611AB4EEE10AF1EE10FA26
:100F200005D290ED040AB1EE400A80ED080A90ED7A
:100F3000080A0EE70000000000B970479FED100A94
:100F400080ED110A80ED100A80ED0F0A9FED0C0A6A
:100F500080ED0E0A80ED0D0A80ED0C0A9FED080A67
:100F600080ED0B0A80ED0A0A80ED090A80ED080A7F
:100F70009FED030A80ED060A80ED070A00BFDCE75B
:100F80000000000000B102B97047017092ED001A34
:100F900080ED011A92ED011A80ED021A92ED021A0B
:100FA00080ED031A80ED040AC0ED050A9FED0C1ACE
:100FB00080ED0E1A80ED0D1A80ED0C1A9FED081AC7
:100FC00080ED081A80ED0B1A80ED0A1A80ED091ADF
:100FD00080ED111A80ED101A80ED0F1A00BFD3E7D3
:100FE0000000000029B1064A12680243044B1A604F
:100FF00004E0034A12688243014B1A607047000004
:101000003038024029B1064A12680243044B1A6084
:1010100004E0034A12688243014B1A6070470000E3
:101020004038024029B1064A12680243044B1A6054
:1010300004E0034A12688243014B1A6070470000C3
:1010400044380240F0B50021002200240225002689
:101050000223324F3F6807F00C0121B1042905D06B
:10106000082937D105E02E4F076036E02D4F076085
:1010700033E02A4F3F1F3F68C7F38056274F3F1F7B
:101080003F6807F03F036EB1264FB7FBF3F7DFF879
:101090008CC0ACF1040CDCF800C0CCF3881C07FB5E
:1010A0000CF40CE01E4FB7FBF3F7DFF870C0ACF1A7
:1010B000040CDCF800C0CCF3881C07FB0CF4174FC1
:1010C0003F1F3F68C7F301477F1C7D00B4FBF5F766
:1010D000076002E0124F076000BF00BF0F4F3F687C
:1010E00007F0F0010909104F7A5C0768D7404760A4
:1010F0000A4F3F6807F4E051890A0B4F7A5C476852
:10110000D7408760054F3F6807F46041490B064FA1
:101110007A5C4768D740C760F0BD000008380240DD
:101120000024F40000127A00F10000204FF080410A
:10113000496A1F4A11601F49096851601E490968C0
:1011400091601E490968D16000214FF080425162D0
:10115000184A1160184A1160184A1160002010E006
:10116000134951F8201041F27072914208DD104984
:1011700051F82010A1F57F41FF390D4A42F82010A7
:10118000401C0328ECDD00200FE0094951F8201035
:10119000022909DC064951F8201011F1020F03DB86
:1011A0000021034A42F82010401C0328EDDD70475F
:1011B000FC0100202404004024080040240C0040CE
:1011C0000CB50020019000903448006840F4803055
:1011D0003249086000BF3148006800F400300090D8
:1011E0000198401C0190009818B90198B0F5A04FE3
:1011F000F1D12A48006800F4003010B101200090BD
:1012000001E0002000900098012846D1234840309A
:10121000006840F080502149403108602048006853
:1012200040F440401E4908601C48083000681B49D3
:10123000083108600846006840F40040086008462D
:10124000006840F4A05008601648091F0860081F95
:10125000006840F08070091F086000BF0F480068F8
:1012600000F000700028F9D040F205700E490860C7
:101270000A480830006820F0030008490831086077
:101280000846006840F00200086000BF03480830CC
:10129000006800F00C000828F8D10CBD00380240AE
:1012A0000070004008544007003C0240042808D168
:1012B0004FF0E021096941F004014FF0E022116193
:1012C00007E04FF0E021096921F004014FF0E0222E
:1012D0001161704702480068401C0149086070476E
:1012E0000000002010B51548006840F47000134954
:1012F00008601348006840F00100114908600020B0
:101300000F49083108600E4800680E4908400C4932
:1013100008600D48091D0860081F006820F480203F
:10132000091F0860002006490C310860FFF748FFDC
:101330004FF0006001498039086010BD88ED00E081
:1013400000380240FFFFF6FE10300024F0B50C46D6
:10135000154600210022068C4FF6FE773E4006849B
:10136000018B028C4FF60C7631407E1C06EA031688
:101370002E4331434FF6F576324044F001063243B6
:1013800001830284F0BDF0B50C4615460021002211
:101390000026078C4FF6EF7C07EA0C070784018BC9
:1013A000028C4FF6FF7707EA041640F6FF473940F4
:1013B0004FF6FF7707EA033739434FF6FF7707EA1F
:1013C000052739434FF65F773A4046F010073A4316
:1013D00001830284F0BDF0B50C46154600210022C1
:1013E0000026078C4FF6FF6C07EA0C070784818BF9
:1013F000028C4FF6FF7707EA04264FF60C77394048
:101400004FF6FF7707EA03172F4339434FF2FF5791
:101410003A4046F480773A4381830284F0BDF0B5C8
:101420000C461546002100220026078C4EF6FF7C54
:1014300007EA0C070784818B028C4FF6FF7707EAD7
:10144000043640F6FF4739404FF6FF7707EA052795
:1014500039434FF6FF7707EA0337394345F6FF77FD
:101460003A4046F480573A4381830284F0BD00003D
:1014700010B501213B4800F069F9002871D0FFF751
:1014800055FE3948008839490988084400B237496F
:1014900008803748B0F9000000EE100AF8EEC00AE4
:1014A0000846B0F9000000EE100AB8EEC00A314854
:1014B000FFF74AFCBDEEC00A10EE100A00B22E493A
:1014C00008802948D0ED000AF8EEE00AB0EE600A84
:1014D000F2EE040A2948FFF737FCBDEEC00A10EE11
:1014E000100A00B2244908800846B0F900002449D7
:1014F00008802148B0F9000000F0B0FF1E48B0F9A4
:10150000000000F0A3FF1C4908800846B0F9000065
:101510001C4908604FF47A70091D08601648B0F93C
:101520000000091D08601448B0F90000091D08609A
:101530001448016814A000F065FE1148B0F90010CD
:1015400017A000F05FFE084801681BA000F05AFEDB
:101550000C4801681EA000F055FE0121014800F072
:10156000B6F810BD00400140FC0100204000002002
:1015700042000020B4010020440000206C01002043
:101580004600002034040140BEE0C0EBB5C4D6B52F
:10159000CAC7207430203D2025640D0A00000000D9
:1015A000BEE0C0EBB5C4D6B5CAC7207431203D201B
:1015B00025640D0A00000000BEE0C0EBB5C4D6B53E
:1015C000CAC7207432203D2025640D0A00000000A7
:1015D000BEE0C0EBB5C4D6B5CAC7207433203D20E9
:1015E00025640D0A0000000010B50121044800F038
:1015F000ADF818B10121024800F069F810BD0000F3
:101600000000014010B501210E4800F09FF8B8B16C
:1016100001210C4800F05BF80B480068401C0A49A7
:10162000086001F063F9084800683221B0FBF1F26C
:1016300001FB1200012803D19FED040A01F0ACF96F
:1016400010BD00000010004038000020000048429B
:101650001FB501210804FFF7E5FC40F24730029076
:1016600040F2E730ADF804000020ADF80600ADF818
:101670000C0001A90D4800F03BFA012211460B486D
:1016800000F0B5F80121094800F024F818208DF881
:10169000000003208DF8010002208DF802000120D7
:1016A0008DF803006846FFF709FB1FBD00400140AD
:1016B00021B1028842F08002028004E002884FF6E5
:1016C0007F731A4002807047CA4302827047CA4340
:1016D0000282704721B1028842F00102028004E0D8
:1016E00002884FF6FE731A400280704731B1B0F89D
:1016F000442042F40042A0F8442005E0B0F8442021
:10170000C2F30E02A0F844207047F0B50C4615460F
:101710001E460021002200230189028B038C4FF614
:10172000F877394021434FF6FC473A4040F2011721
:101730003A434FF6DD773B404FF6FF7707EA06174F
:101740002F433B43018102830384F0BD30B5024641
:10175000002000230024158A05EA0103958905EA83
:10176000010413B10CB1012000E0002030BD70B5C0
:1017700005460C46208850B92389A28861882846EE
:10178000FFF7E4FDE188284600F085F925E0208890
:1017900004280AD12389A28861882846FFF7F3FD2F
:1017A000E188284600F080F917E0208808280AD14F
:1017B0002389A28861882846FFF70DFEE188284624
:1017C00000F07FF909E02389A28861882846FFF7A5
:1017D00026FEE188284600F07DF970BD00210180D9
:1017E0004180012181800021C180018170471AB1AF
:1017F00083890B43838102E083898B438381704714
:1018000070B5002400220023058C4FF6FE7635408B
:101810000584028C8388048B4FF68F752C40B51E8F
:101820002C400D882C43751E2A408D892A434D88F3
:101830002A43104DA84202D00F4DA84213D14FF6B3
:10184000F7752A40CD892A434FF6FB752A408D88CB
:101850002A434FF6FF652B404FF6FF552B400D8A6C
:101860002B434D8A2B43838004838D684563028418
:1018700070BD000000000140000401400A46002144
:10188000018B4FF6F7731940114301837047000035
:1018900070B5002400220023058C4FF6EF7635400A
:1018A0000584028C8388048B48F6FF752C404FF624
:1018B000FF452C400D884FF6FF7606EA05252C43A0
:1018C0004FF6DF752A408D8906EA05152A434D88B3
:1018D00006EA05152A43154DA84202D0144DA84228
:1018E0001DD14FF67F752A40CD894FF6FF7606EA67
:1018F00005152A434FF6BF752A408D8806EA05155F
:101900002A434FF6FF352B404FF2FF752B400D8ACF
:1019100006EA85052B434D8A06EA85052B4383801D
:1019200004838D688563028470BD0000000001405F
:10193000000401400A460021018B4FF2FF73194059
:101940004FF6FF7303EA0223194301837047000037
:1019500070B5002400220023058C4FF6FF66354049
:101960000584028C8388848B4FF68F752C404FF64C
:10197000FC752C400D882C434FF6FF552A408D896D
:101980004FF6FF7606EA05252A434D8806EA052527
:101990002A43154DA84202D0144DA8421DD14FF242
:1019A000FF752A40CD894FF6FF7606EA05252A43C2
:1019B0004FF6FF352A408D8806EA05252A434EF664
:1019C000FF752B404DF6FF752B400D8A06EA051575
:1019D0002B434D8A06EA05152B43838084838D684B
:1019E000C563028470BD0000000001400004014096
:1019F0000A460021818B4FF6F7731940114381830A
:101A00007047000070B5002200230024058C4EF6BC
:101A1000FF7635400584038C8488828B48F6FF75F9
:101A20002A404FF6FF452A400D884FF6FF7606EA1A
:101A300005252A434DF6FF752B408D8906EA0535AD
:101A40002B434D8806EA05352B430A4DA84202D0A8
:101A5000094DA84208D14BF6FF752C400D8A4FF670
:101A6000FF7606EA85152C43848082838D680564A1
:101A7000038470BD00000140000401400A460021BB
:101A8000818B4FF2FF7319404FF6FF7303EA022375
:101A9000194381837047028B4FF6F3731A40028318
:101AA000028B0A4302837047028B4FF2FF331A40C6
:101AB0000283028B4FF6FF7303EA01231A4302836A
:101AC0007047828B4FF6F3731A408283828B0A43EE
:101AD00082837047828B4FF2FF331A408283828B5E
:101AE0004FF6FF7303EA01231A4382837047000015
:101AF00000220288184B98420ED0184B98420BD007
:101B0000B0F1804F08D0164B984205D0154B984243
:101B100002D0154B984204D14FF68F731A404B8870
:101B20001A43124B984207D0114B984204D04FF6FB
:101B3000FF431A400B891A4302804B68C3620B882B
:101B40000385054B984202D0044B984201D18B7A11
:101B50000386012383827047000001400004014096
:101B60000004004000080040000C0040001000404D
:101B70000014004010B540F22551184800F028F933
:101B800058B140F22551154800F0FAF81348001DED
:101B90000088C4B2204601F0D7FA40F227710F48FE
:101BA00000F016F9C0B10E4801780078401C0C4ACC
:101BB00010700C48405C0949091D088010460078E7
:101BC00009490978884207D104480C30008820F080
:101BD000800002490C31088010BD0000004C00401C
:101BE000840000200A0600208500002010B540F285
:101BF0002551084800F0ECF858B1064800F0A2F969
:101C0000C4B2204600F0A8F940F22551014800F086
:101C1000B7F810BD0044004010B540F225511848F7
:101C200000F0D6F850B140F22551154800F0A8F860
:101C300013488088C4B2204601F0AEF940F2277103
:101C40000F4800F0C5F8D0B10E4801780078401C6C
:101C50000C4A10700C48405C094988801046007896
:101C60000A49097888420AD10020084908701146BB
:101C700008700348808920F080000149888110BDE8
:101C8000001001404A000020600300204B000020AB
:101C900010B540F22771184800F09AF8C0B1174803
:101CA00001780078401C154A10701548405C1249B4
:101CB000091D08801046007812490978884207D12A
:101CC0000D480C30008820F080000B490C31088052
:101CD00040F22551084800F07BF858B140F22551F8
:101CE000054800F04DF8044800F02CF9C4B2204635
:101CF00001F0F8FA10BD0000004800405400002038
:101D0000BE0400205500002010B540F225511848AF
:101D100000F05EF858B140F22551154800F030F857
:101D20001348001D0088C4B2204601F0A3FB40F216
:101D300027710F4800F04CF8C0B10E4801780078C8
:101D4000401C0C4A10700C48405C0949091D088071
:101D50001046007809490978884207D104480C30B8
:101D6000008820F0800002490C31088010BD00007E
:101D700000140140A0000020DA070020A10000208C
:101D800010B50022002340F66A14A14200D100BF22
:101D90000A1201249440A3B2DC43048010BD21B197
:101DA000828942F40052828104E082894DF6FF73F9
:101DB0001A408281704702460020B1F5007F00D1B1
:101DC00000BF13880B400BB1012000E000207047DA
:101DD00070B50246002400230025002040F66A1654
:101DE000B14200D100BFC1F3421501F01F0301262B
:101DF00006FA03F3012D02D19689334006E0022D45
:101E000002D1168A334001E0968A33400C12012633
:101E100006FA04F41688344013B10CB1012000E036
:101E2000002070BDF0B503460024002600250020E8
:101E300040F66A17B94200D100BF1846C1F34214F8
:101E400001F01F06012707FA06F5012C01D10C301D
:101E500004E0022C01D1103000E014301AB1076800
:101E60002F43076002E00768AF430760F0BD000042
:101E70002DE9FF4705460E460024A14600BFA046B7
:101E8000B08900B100BF2C8A24F44054F088044388
:101E90002C82AC8941F20C608443B08831890843BC
:101EA000718908430443AC81AC8A24F44074B0893E
:101EB0000443AC826846FFF7C5F82048854202D04B
:101EC0001F48854202D1DDF80C9001E0DDF8089052
:101ED000A88900F4004040B109EBC90000EB0910EB
:101EE00031684900B0FBF1F707E009EBC90000EBEE
:101EF000091031688900B0FBF1F76420B7FBF0F0FE
:101F000004012009642101FB1078A88900F4004035
:101F100040B1322000EBC800B0FBF1F000F0070048
:101F2000044308E0322000EB08106421B0FBF1F01C
:101F300000F00F0004432C81BDE8FF870010014032
:101F40000014014001468888C0F308007047C1F3BF
:101F500008028280704700002DE9FC4180469C48C1
:101F6000006808B9BDE8FC819A4801680068401C17
:101F7000984A1060984800F801809848006830B18D
:101F800001287CD002287BD003287AD110E1924826
:101F9000007855280CD08F480068401E8D49086095
:101FA00008468D49491C0268481EFEF709F9D9E721
:101FB000884800680B2865D30A21874800F04EF94D
:101FC00007468548807AB8420CD082480068401E97
:101FD0008049086008468049491C0268481EFEF78F
:101FE000EFF8BFE77C4880787B49C97840EA012058
:101FF000ADF80000784800797749497940EA012036
:10200000ADF80200744880797349C97940EA01202B
:10201000ADF804007048007A6F49497A40EA01201F
:10202000ADF806006C49487804226946FEF75EFD6B
:10203000002450E004F13400694931F9100000EE49
:10204000100AB8EEC00A9FED671AC0EE010AB3EE9F
:10205000000A20EE800A644800EB840080ED000A4C
:1020600004F1370031F9100000EE100AF8EEC00A52
:102070009FED5C1A80EE810ADFED5C0A03E030E040
:1020800095E099E02CE020EE200A594800EB84000E
:1020900080ED000A04F13D0031F9100000EE100A55
:1020A000F8EEC00A9FED4F1A80EE810ADFED510A6B
:1020B00020EE200A504800EB840080ED000A032C3B
:1020C00007D14D4800EB840090ED000A4B4880EDAD
:1020D000000A601C84B2032CACDB00203D49086080
:1020E0006AE03C480068022860D93B4840780328F1
:1020F0000CD038480068401E36490860084636490A
:10210000491C0268481EFEF75BF82BE732488078CE
:10211000401D30490968884200D923E72D480068EE
:10212000401E2D49095C2B480068801E2A4A105C1D
:1021300041EA002527480088801E81B2104600F041
:1021400071F80646B5420CD022480068401E21496D
:10215000086008462049491C0268481EFEF730F80E
:1021600000E71D4880784510002414E0042000EBAF
:1021700044001949085C032101EB4401164A515CF3
:1021800040EA012000B21E4909682144144A22F89D
:102190001100601C84B2AC42E8DB29461848006894
:1021A0000B4A1268904700200A49086004E000BF0B
:1021B00000200849086000BF00BF06480068B0F56D
:1021C000807F02D100200349086000BFCAE60000FA
:1021D0001801002024010020580A002028010020B6
:1021E000580B002000000047340A00200000FA4489
:1021F000400A0020000034434C0A00200401002063
:102200002C0100200FB4054B10B503A9044A029815
:1022100000F072F810BC5DF814FB00007527000890
:102220003401002070B503460C46FF25FF2600222E
:1022300000BF00BF09E0985C80EA05010548405CEA
:1022400080EA06050448465C521CA242F3DB46EADB
:10225000052070BD5C3500085C36000810B50246EC
:102260000B460020002103E0545C0444E0B2491C0A
:102270009942F9D310BD000030B583B0044600F098
:1022800017F89FED090B05468DED000B0022214646
:102290006846FEF7C0F8284600F020F89DED000BD8
:1022A00003B030BD0000000000000000000000008E
:1022B00001480068704700003801002002E008C8AB
:1022C000121F08C1002AFAD170477047002001E0B0
:1022D00001C1121F002AFBD17047000001490860AC
:1022E000704700003801002030380A2801D2012050
:1022F00070470020704700002DE9FF4F89B09B46D2
:102300000446002506E025280BD05A460B99904735
:10231000641C6D1C20780028F5D10DB02846BDE85E
:10232000F08F0027B8460122474900E0074314F820
:10233000013F203B02FA03F00842F7D120782E2813
:1023400019D114F8010F47F004072A280ED06FF0B6
:102350002F022078A0F1300109290CD808EB880160
:1023600002EB410100EB0108641CF2E70A98641CCF
:1023700050F8048B0A9020780028CED0642808D02A
:10238000692806D075281ED05A460B9990476D1CB7
:1023900058E00A994FF00A0901C90A91002802DAA7
:1023A00040422D2102E0390504D52B218DF8201063
:1023B000012103E0F90704D02021F7E78A4608AE9F
:1023C0000DE00021FAE70A994FF00A0901C90A91C4
:1023D000F7E74946FDF7CEFF303106F8011D00282A
:1023E000F7D1ADEB060000F12009780701D44FF0DA
:1023F0000108C84502DDA8EB090000E00020804686
:10240000002706E008A85A46C05D0B9990476D1C4E
:102410007F1C5745F6DB04E030205A460B99904765
:102420006D1CB8F10001A8F10108F5DC05E016F813
:10243000010B5A460B9990476D1CB9F10001A9F1A7
:102440000109F4DC641C65E7092801000146002944
:1024500001DA484200E0084600B27047002807DA77
:102460000021074A11600121064AC2F88C1206E0D9
:102470000121034A11600021024AC2F88C12704700
:10248000880243420000434210B5044603E04FF483
:102490007A7000F005F8201EA4F10104F7D110BDF8
:1024A00010B5034600F078F9044600BF00F074F957
:1024B000001B9842FAD310BD00B589B00121042059
:1024C000FEF7A0FD01210220FEF78CFD0121022074
:1024D000FEF798FD01210846FEF784FD012108461C
:1024E000FEF790FD01210820FEF77CFD0121082068
:1024F000FEF788FD01210420FEF774FD02220C2165
:102500009548FEF7B3FB02220D219348FEF7AEFB80
:10251000012203219148FEF7A9FB01220F219048D7
:10252000FEF7A4FB022204218C48FEF79FFB022247
:1025300005218A48FEF79AFB022201218848FEF70E
:1025400095FB022211468648FEF790FB4FF440505F
:10255000079002208DF8200003208DF82100012033
:102560008DF822008DF8230007A97B48FEF736FB83
:1025700048F20600079002208DF8200003208DF815
:10258000210001208DF822008DF8230007A974484E
:10259000FEF724FB3820079002208DF8200003204E
:1025A0008DF8210001208DF822008DF8230007A965
:1025B0006A48FEF713FBC020079002208DF8200028
:1025C00003208DF8210001208DF822008DF82300D2
:1025D00007A96448FEF702FB4FF6FF700590002044
:1025E000ADF81000ADF81800ADF8120004A95E486F
:1025F000FFF77EFA4FF6FF7005900020ADF810004F
:10260000ADF81800ADF8120004A95848FFF770FAA9
:102610004FF6FF7005900020ADF81000ADF81800DF
:10262000ADF8120004A94FF08040FFF761FA4FF6B1
:10263000FF7005900020ADF81000ADF81800ADF85F
:10264000120004A94A48FFF753FA0A231A46032145
:102650004548FFF75AF801A8FFF7C0F80A20ADF87F
:102660000C0001A94048FFF782F801213E48FFF71E
:102670002BF8012211463C48FFF7B9F800203A49EF
:102680002431086001213848FFF724F80A231A464C
:1026900003213648FFF739F801A8FFF79FF80A2011
:1026A000ADF80C0001A93148FFF761F801212F486E
:1026B000FFF70AF8012211462C48FFF798F800208E
:1026C0002A492431086001212848FFF703F80A232A
:1026D0001A4603215807FFF718F801A8FFF77EF8FC
:1026E0000A20ADF80C0001A94007FFF740F80121CE
:1026F0008807FEF7E9FF012211469007FFF777F8F8
:1027000000204FF08041486201218807FEF7E2FF78
:102710000A231A4603211648FEF7F7FF01A8FFF720
:102720005DF80A20ADF80C0001A91148FFF71FF869
:1027300001210F48FEF7C8FF012211460C48FFF7A0
:1027400056F800200A492431086001210848FEF7A4
:10275000C1FF09B000BD0000000C024000040240AF
:102760000000024000080240000800400004004051
:10277000000C004070B504460D4600BF802105489E
:10278000FFF719FB0028F9D0A1B20248FFF7DFFBE1
:10279000204670BD004400404FF0E02040694FF0FB
:1027A000E0218969401A4FF0E0214969B0FBF1F05E
:1027B0004FF47A7148430449096801EB4102C2EBC6
:1027C000C11100EBC10070470000002030B5034686
:1027D0000020132900DD1321294CE45C944229DAFE
:1027E000284C04EB830494ED002AB4EEC02AF1EEE9
:1027F00010FA02D2244CE15435E0224C04EB83045D
:1028000094ED002A70EE202AB4EEE22AF1EE10FADE
:1028100003D200241C4DEC5425E09FED1C2A194CDA
:1028200004EB830484ED002A154CE45C641C144D15
:10283000EC5418E0134C04EB830494ED002AB4EE3E
:10284000C12AF1EE10FA03D200240F4DEC540AE035
:102850009FED0E2A0B4C04EB830484ED002A002428
:10286000074DEC540120074C04EB830494ED002A3F
:1028700032EE212A034C04EB830484ED002A30BDA0
:102880002B00002060010020280000200000000034
:1028900000B50648007806490978884205D0034803
:1028A00000780349087000F005F800BD2E000020F4
:1028B0002F00002000200DE09FED080A084901EBE1
:1028C000800181ED000A0021064A1154064A115484
:1028D000411CC8B20328EFDB704700000000000075
:1028E00060010020280000202B00002010B50024EB
:1028F00044E02448005D2449095D884218DA24B187
:10290000012C08D0022C12D10BE0204A118950680A
:10291000FEF7D1F90BE01E4A11895068FEF7CBF99A
:1029200005E01C4A11895068FEF7C5F900BF18E0A0
:1029300024B1012C08D0022C12D10BE0134A1189CA
:102940005068FEF7B6F90BE0114A11895068FEF79E
:10295000B0F905E00F4A11895068FEF7AAF900BFE7
:1029600000BF0848015D005D401C064A1055132950
:1029700002DD002011460855601CC4B2032CB8DBF0
:1029800010BD0000300000202800002010000020B2
:102990001C0000200400002000B5B0EE403AFFF714
:1029A00077FF1C480078C0F3801018B101201A4945
:1029B000087002E00020184908701748007810B12C
:1029C000012824D111E0F0EE431A9FED141ADFED37
:1029D000140A9FED130A012213210220FFF7F6FECD
:1029E000002010494870087012E0F0EE431A9FED85
:1029F0000E1ADFED0B0A9FED0A0A01221321104681
:102A0000FFF7E4FE002007498870087000E000BF6F
:102A100000BF00BDA40000202E00002000401C4587
:102A20000000C842280000200000FA4300F03EFBEE
:102A300000F09EF84FF4A060FEF77CF9022140F60A
:102A4000980000F011F8FFF737FD4FF4165000F032
:102A5000ABFBFEF7FDFD00F0B1F803E04FF47A7038
:102A6000FFF712FDFAE7000030B58BB005460C46C3
:102A700001210420FEF7B6FA01210220FEF7D2FA66
:102A8000032206213848FEF7F1F8032207213648D1
:102A9000FEF7ECF8032208213348FEF7E7F803229B
:102AA00009213148FEF7E2F84FF4707009900220D6
:102AB0008DF8280000208DF82B008DF82A000320C7
:102AC0008DF8290009A92848FEF788F8681E0790A4
:102AD000601E80B2ADF818000020ADF82000ADF8FF
:102AE0001A008DF8220006A92048FFF701F860209F
:102AF000ADF804000020ADF810000120ADF806008C
:102B00004FF47A70039001A91848FEF779FE01A9E5
:102B10001648FEF7BDFE01A91448FEF719FF01A9EA
:102B20001248FEF76FFF08211048FEF7A7FE0821A4
:102B30000E48FEF7FFFE08210C48FEF759FF08215A
:102B40000A48FEF79BFF01210848FEF7B1FD01216D
:102B50000648FEF7BFFD01210448FEF7C7FD00F05F
:102B600039F80BB030BD00000008024000040140FD
:102B700010B5DFED0C0A9FED0B0A0B4A00210B4844
:102B8000FEF700FADFED0A0A9FED060A094A002166
:102B90000948FEF7F7F90548FEF7CEF90648FEF7B3
:102BA000CBF910BD0080BB44443500086C01002007
:102BB00000007A4450350008B40100200120034988
:102BC00008600349C1F8B00270470000AC024042FF
:102BD000000040421CB501214920FEF703FA042001
:102BE000009001208DF8040000208DF806000320DD
:102BF0008DF8050001208DF8070069465D48FDF756
:102C0000EDFF4FF48060009001208DF8040000205B
:102C10008DF8060003208DF8050001208DF80700CF
:102C200069465448FDF7DAFF0820009001208DF82E
:102C3000040000208DF8060003208DF80500012017
:102C40008DF8070069464B48FDF7C8FF102000903B
:102C500001208DF8040000208DF8060003208DF877
:102C6000050001208DF8070069464248FDF7B6FFD0
:102C70002020009001208DF8040000208DF806002F
:102C800003208DF8050001208DF8070069463948BA
:102C9000FDF7A4FF4FF40060009001208DF80400C0
:102CA00000208DF807008DF8060003208DF8050040
:102CB00069463148FDF792FF4020009001208DF8D1
:102CC000040000208DF8060003208DF80500012087
:102CD0008DF8070069462748FDF780FF4FF48070A4
:102CE000009001208DF8040000208DF806000320DC
:102CF0008DF8050001208DF8070069461D48FDF795
:102D00006DFF4FF48040009001208DF804000020FA
:102D10008DF8060003208DF8050001208DF80700CE
:102D200069461648FDF75AFF4FF400400090012015
:102D30008DF8040000208DF8060003208DF80500B2
:102D400001208DF8070069460C48FDF747FF4FF456
:102D50008050009001208DF8040000208DF80700BD
:102D60008DF8060003208DF8050069460248FDF73E
:102D700035FF1CBD0018024000000240000C02405C
:102D800030B50023002204E0845C1C44E3B2541CF0
:102D9000E2B24C1E9442F7DC0478A52C02D14478B0
:102DA0005A2C00D030BD441814F8014C9C427CD100
:102DB0008478F12C04D0F22C78D0F32C77D1CBE0AE
:102DC00010F8044F2406457844EA0544857844EA1F
:102DD0000524C5782C4300EE104AB8EEC00ADFED9A
:102DE000690A80EE201A684C84ED011A04792406E1
:102DF000457944EA0544857944EA0524C5792C439C
:102E000000EE104AB8EEC00ADFED5E0A80EE201A2E
:102E10005D4C84ED031A047A2406457A44EA05449D
:102E2000857A44EA0524C57A2C4300EE104AB8EEB0
:102E3000C00ADFED540A80EE201A534C84ED061AC6
:102E4000047B2406457B44EA0544857B44EA05244B
:102E5000C57B2C4300EE104AB8EEC00ADFED490AEC
:102E600080EE201A494C84ED011A047C2406457C2E
:102E700044EA0544857C44EA0524C57C2C4300EEE5
:102E8000104AB8EEC00ADFED3F0A80EE201A3F4C30
:102E900084ED031A047D2406457D44EA0544857DBE
:102EA00044EA0524C57D2C4302E068E050E065E07B
:102EB00000EE104AB8EEC00ADFED320A80EE201AAA
:102EC000324C84ED061A047E2406457E44EA05440D
:102ED000857E44EA0524C57E2C4300EE104AB8EEF8
:102EE000C00ADFED280A80EE201A294C84ED001A72
:102EF000047F2406457F44EA0544857F44EA05248F
:102F0000C57F2C4300EE104AB8EEC00ADFED1D0A63
:102F100080EE201A1E4C84ED031A90F820402406FF
:102F200090F8215044EA054490F8225044EA0524E0
:102F300090F82350001F2C4300EE104AB8EEC00A50
:102F4000DFED100A80EE201A114C84ED061A15E010
:102F50000124104D2C7011E0047904F001040D4D92
:102F60006C700479C4F34004AC700479C4F3800439
:102F7000EC700479C4F3C0042C7100BF00BF00BF23
:102F800010E7000000007A441009002044090020E6
:102F9000780900204C00002010B504463F48007816
:102FA00080B9A52C0ED100203D49087001203B4975
:102FB00008703B4801780078401C394A1070394845
:102FC000445469E03548007801280DD15A2C0BD1C2
:102FD000022032490870324801780078401C304A9B
:102FE00010703048445457E02C48007802280BD128
:102FF00003202A4908702A4801780078401C284A92
:1030000010702848445447E02448007803280FD122
:103010005F2C0DDA042021490870234804702048F1
:1030200001780078401C1E4A10701E48445433E05A
:103030001A480078042817D11B480078002813DDAF
:1030400019480078401E1849087015480178007822
:10305000401C134A10701348445413480078D8B9E0
:1030600005200E49087017E00C480078052810D19B
:1030700000200A4908700A4801780078401C084A74
:10308000107008484454104601780648FFF778FE4F
:1030900002E000200149087010BD0000530000202C
:1030A00051000020980200205200002070B545F227
:1030B0000821481EB0F1807F00D31BE0481E4FF06E
:1030C000E022506150170F22002807DA13071D0E67
:1030D0000B4B00F00F04241F1D5503E013071C0EBB
:1030E000084B1C5400BF00204FF0E02290610720E5
:1030F000106100BF6FF00400FEF7D8F870BD00004B
:1031000018ED00E000E400E00278303A0D4B5A7010
:103110004278303A9A708278303ADA701A465278A9
:10312000642312FB03F2074B9B7803EB830302EB50
:103130004302044BDB781A44024B5A6001221A7096
:10314000704700008800002010B50446134800783E
:1031500028B9012011490870114804701DE00F487A
:103160000078012805D102200C4908700C484470F1
:1031700013E00A48007802280CD1032007490870A0
:10318000074884700748007838B903210448FFF7DE
:10319000BBFF02E000200149087010BD9000002034
:1031A000D8050020880000202DE9F04387B00446B0
:1031B00001214804FDF726FF01210846FDF712FF13
:1031C000072202214348FDF751FD07220321414810
:1031D000FDF74CFD0C20059002208DF81800002012
:1031E0008DF81B008DF81A0003208DF8190005A931
:1031F0003848FDF7F3FC01940020ADF80C00ADF861
:103200000A00ADF80800ADF810000C20ADF80E0073
:1032100001A93148FEF72CFE012240F225512E482B
:10322000FEF700FE002240F227712B48FEF7FAFD60
:103230002620022201252E461346C3F10708B8F1C5
:10324000040F02D94FF0040801E0C3F10708C44697
:1032500003F10408B8F1070F02D24FF0000801E0B3
:10326000A3F1030847464FF0010808FA0CF8A8F14B
:10327000010808EA050808FA07F84FF0010909FAF9
:1032800007F9A9F1010909EA060948EA090100BF9D
:10329000002807DA0A07150E104A00F00F031B1F5B
:1032A000D55403E00A07130E0D4A135400BF26201D
:1032B00000F01F02012191404209920002F1E02238
:1032C000C2F8001100BF01210348FEF768FD07B0F6
:1032D000BDE8F083000002400044004018ED00E02B
:1032E00000E400E05549097881B90D280ED101218B
:1032F000524A11700021524A117011460A78097819
:10330000491C4F4B19704F49885495E04B49097837
:10331000012913D10A2811D10221484A1170002134
:10332000494A11701821494A117045490A780978AB
:10333000491C434B1970434988547DE03F49097843
:10334000022920D14149097800291CDD3F4909782B
:10335000491E3E4A11703C490A780978491C3A4B8B
:1033600019703B49885436490A780978491C344B0E
:103370001970344988543549097800295CD10321F2
:103380002E4A117058E02D49097803290DD10A28D9
:103390000BD10421294A117029490A780978491C5E
:1033A000274B19702749885446E024490978042995
:1033B0003FD10D283DD10021204A11702149204ADA
:1033C00012788854224991ED000A224981ED000AC1
:1033D0001F4991ED010A204981ED000A1C4991ED38
:1033E000020A1E4981ED000A194991ED030A1C49A0
:1033F00081ED000A164991ED040A1A4981ED000A8F
:10340000134991ED050A184981ED000A114991ED22
:10341000000ADFED160AB4EEE00AF1EE10FA0BD264
:1034200091ED000ADFED120A30EE200A81ED000A6C
:1034300002E00021014A1170704700006F00002077
:103440006D0000208C0400206E0000206C00002025
:10345000C00500200401002060000020640000205E
:10346000580000205C00002068000020000007C316
:103470000000B44370B52DED028B0546284829495C
:103480000968455427480068401C264908600A2DF1
:1034900043D100202249234A1268885422A120489F
:1034A000FCF7B8FE044633E0032220A12046FCF7D7
:1034B000A2FE88B9E11C1E48FCF794FE1C48FEF7EA
:1034C000DBFEB0EE408AF0EE608A51EC180BFCF7A0
:1034D00035FF1849086016E0032217A12046FCF7C3
:1034E0008AFE80B9E11C1548FCF77CFE1348FEF704
:1034F000C3FEB0EE408AF0EE608A51EC180BFCF788
:103500001DFF0F49086008A10020FCF783FE044658
:10351000002CC9D1002003490860BDEC028B70BDAE
:1035200030070020940000202000000074313D008E
:10353000940700209800002074323D009E07002070
:103540009C000020000020419A99993E0000000054
:103550000000A0C2000000800000008000C1814087
:1035600001C0804101C0804100C1814001C0804153
:1035700000C1814000C1814001C0804101C0804143
:1035800000C1814000C1814001C0804100C1814033
:1035900001C0804101C0804100C1814001C0804123
:1035A00000C1814000C1814001C0804100C1814013
:1035B00001C0804101C0804100C1814000C1814003
:1035C00001C0804101C0804100C1814001C08041F3
:1035D00000C1814000C1814001C0804101C08041E3
:1035E00000C1814000C1814001C0804100C18140D3
:1035F00001C0804101C0804100C1814000C18140C3
:1036000001C0804101C0804100C1814001C08041B2
:1036100000C1814000C1814001C0804100C18140A2
:1036200001C0804101C0804100C1814001C0804192
:1036300000C1814000C1814001C0804101C0804182
:1036400000C1814000C1814001C0804100C1814072
:1036500001C0804101C0804100C1814000C0C10162
:10366000C30302C2C60607C705C5C404CC0C0DCDF2
:103670000FCFCE0E0ACACB0BC90908C8D81819D962
:103680001BDBDA1A1EDEDF1FDD1D1CDC14D4D51592
:10369000D71716D6D21213D311D1D010F03031F182
:1036A00033F3F23236F6F737F53534F43CFCFD3DB2
:1036B000FF3F3EFEFA3A3BFB39F9F83828E8E929A2
:1036C000EB2B2AEAEE2E2FEF2DEDEC2CE42425E552
:1036D00027E7E62622E2E323E12120E0A06061A1C2
:1036E00063A3A26266A6A767A56564A46CACAD6D72
:1036F000AF6F6EAEAA6A6BAB69A9A86878B8B979E2
:10370000BB7B7ABABE7E7FBF7DBDBC7CB47475B511
:1037100077B7B67672B2B373B17170B05090915101
:103720009353529296565797559594549C5C5D9D31
:103730005F9F9E5E5A9A9B5B995958988848498921
:103740004B8B8A4A4E8E8F4F8D4D4C8C44848545D1
:10375000874746868242438341818040DDDDDDDD4F
:10376000DCBBBBDDDDDDDDDDDDDDDDDD9888888812
:1037700088888888777777777788888885555556B9
:103780006666666666666666666888888333333210
:1037900022222222222222222228888DBC370008BF
:1037A000000000203C010000940A000810380008C6
:1037B0003C0100203C0F0000CC22000841420135B2
:1037C0000C0240085A020C3914590C391401132503
:1037D000DA0F49407AF42B015C1A0166236B03323D
:1037E000D21A07081B6C07AC19994B0104141A3341
:1037F0000829141A031C5A97144B5F051409104D1D
:103800002C02030404051F06070809021BFF000021
:040000050800018965
:00000001FF
